{
  "_format": "hh-sol-artifact-1",
  "contractName": "SimpleAmm",
  "sourceName": "contracts/SimpleAmm.sol",
  "abi": [
    {
      "inputs": [
        {
          "internalType": "address",
          "name": "_tokenA",
          "type": "address"
        },
        {
          "internalType": "address",
          "name": "_tokenB",
          "type": "address"
        }
      ],
      "stateMutability": "nonpayable",
      "type": "constructor"
    },
    {
      "inputs": [
        {
          "internalType": "uint256",
          "name": "amountA",
          "type": "uint256"
        },
        {
          "internalType": "uint256",
          "name": "amountB",
          "type": "uint256"
        }
      ],
      "name": "addLiquidity",
      "outputs": [
        {
          "internalType": "uint256",
          "name": "minted",
          "type": "uint256"
        }
      ],
      "stateMutability": "nonpayable",
      "type": "function"
    },
    {
      "inputs": [
        {
          "internalType": "uint256",
          "name": "amountIn",
          "type": "uint256"
        },
        {
          "internalType": "bool",
          "name": "isAToB",
          "type": "bool"
        }
      ],
      "name": "getAmountOut",
      "outputs": [
        {
          "internalType": "uint256",
          "name": "",
          "type": "uint256"
        }
      ],
      "stateMutability": "view",
      "type": "function"
    },
    {
      "inputs": [],
      "name": "getReserves",
      "outputs": [
        {
          "internalType": "uint256",
          "name": "",
          "type": "uint256"
        },
        {
          "internalType": "uint256",
          "name": "",
          "type": "uint256"
        }
      ],
      "stateMutability": "view",
      "type": "function"
    },
    {
      "inputs": [
        {
          "internalType": "uint256",
          "name": "share",
          "type": "uint256"
        }
      ],
      "name": "removeLiquidity",
      "outputs": [
        {
          "internalType": "uint256",
          "name": "outA",
          "type": "uint256"
        },
        {
          "internalType": "uint256",
          "name": "outB",
          "type": "uint256"
        }
      ],
      "stateMutability": "nonpayable",
      "type": "function"
    },
    {
      "inputs": [],
      "name": "reserveA",
      "outputs": [
        {
          "internalType": "uint256",
          "name": "",
          "type": "uint256"
        }
      ],
      "stateMutability": "view",
      "type": "function"
    },
    {
      "inputs": [],
      "name": "reserveB",
      "outputs": [
        {
          "internalType": "uint256",
          "name": "",
          "type": "uint256"
        }
      ],
      "stateMutability": "view",
      "type": "function"
    },
    {
      "inputs": [
        {
          "internalType": "address",
          "name": "",
          "type": "address"
        }
      ],
      "name": "shares",
      "outputs": [
        {
          "internalType": "uint256",
          "name": "",
          "type": "uint256"
        }
      ],
      "stateMutability": "view",
      "type": "function"
    },
    {
      "inputs": [
        {
          "internalType": "uint256",
          "name": "amountIn",
          "type": "uint256"
        },
        {
          "internalType": "uint256",
          "name": "minOut",
          "type": "uint256"
        },
        {
          "internalType": "bool",
          "name": "isAToB",
          "type": "bool"
        }
      ],
      "name": "swap",
      "outputs": [
        {
          "internalType": "uint256",
          "name": "amountOut",
          "type": "uint256"
        }
      ],
      "stateMutability": "nonpayable",
      "type": "function"
    },
    {
      "inputs": [],
      "name": "tokenA",
      "outputs": [
        {
          "internalType": "contract IERC20",
          "name": "",
          "type": "address"
        }
      ],
      "stateMutability": "view",
      "type": "function"
    },
    {
      "inputs": [],
      "name": "tokenB",
      "outputs": [
        {
          "internalType": "contract IERC20",
          "name": "",
          "type": "address"
        }
      ],
      "stateMutability": "view",
      "type": "function"
    },
    {
      "inputs": [],
      "name": "totalShares",
      "outputs": [
        {
          "internalType": "uint256",
          "name": "",
          "type": "uint256"
        }
      ],
      "stateMutability": "view",
      "type": "function"
    }
  ],
  "bytecode": "0x60c060405234801561001057600080fd5b5060405161191f38038061191f83398181016040528101906100329190610104565b8173ffffffffffffffffffffffffffffffffffffffff1660808173ffffffffffffffffffffffffffffffffffffffff16815250508073ffffffffffffffffffffffffffffffffffffffff1660a08173ffffffffffffffffffffffffffffffffffffffff16815250505050610144565b600080fd5b600073ffffffffffffffffffffffffffffffffffffffff82169050919050565b60006100d1826100a6565b9050919050565b6100e1816100c6565b81146100ec57600080fd5b50565b6000815190506100fe816100d8565b92915050565b6000806040838503121561011b5761011a6100a1565b5b6000610129858286016100ef565b925050602061013a858286016100ef565b9150509250929050565b60805160a05161177e6101a1600039600081816103b301528181610421015281816106d30152818161093f0152610baa015260008181610267015281816103d401528181610400015281816108620152610acb015261177e6000f3fe608060405234801561001057600080fd5b50600436106100a95760003560e01c80633a98ef39116100715780633a98ef39146101695780635f64b55b146101875780639c8f9f23146101a55780639cd441da146101d6578063ce7c2ac214610206578063dc5fa6c514610236576100a9565b80630902f1ac146100ae5780630fc63d10146100cd57806311106ee2146100eb57806319e36f3b1461011b5780632bec60fe14610139575b600080fd5b6100b6610254565b6040516100c4929190610df7565b60405180910390f35b6100d5610265565b6040516100e29190610e9f565b60405180910390f35b61010560048036038101906101009190610f23565b610289565b6040516101129190610f63565b60405180910390f35b61012361035c565b6040516101309190610f63565b60405180910390f35b610153600480360381019061014e9190610f7e565b610362565b6040516101609190610f63565b60405180910390f35b6101716106cb565b60405161017e9190610f63565b60405180910390f35b61018f6106d1565b60405161019c9190610e9f565b60405180910390f35b6101bf60048036038101906101ba9190610fd1565b6106f5565b6040516101cd929190610df7565b60405180910390f35b6101f060048036038101906101eb9190610ffe565b610a1f565b6040516101fd9190610f63565b60405180910390f35b610220600480360381019061021b919061107c565b610d2d565b60405161022d9190610f63565b60405180910390f35b61023e610d45565b60405161024b9190610f63565b60405180910390f35b600080600054600154915091509091565b7f000000000000000000000000000000000000000000000000000000000000000081565b60008060008361029e576001546000546102a5565b6000546001545b915091506000821180156102b95750600081115b6102f8576040517f08c379a00000000000000000000000000000000000000000000000000000000081526004016102ef90611106565b60405180910390fd5b60006103e86103e58761030b9190611155565b61031591906111c6565b9050806103e880856103279190611155565b61033191906111c6565b61033b91906111f7565b82826103479190611155565b61035191906111c6565b935050505092915050565b60015481565b60008084116103a6576040517f08c379a000000000000000000000000000000000000000000000000000000000815260040161039d90611277565b60405180910390fd5b600080600080856103fe577f00000000000000000000000000000000000000000000000000000000000000007f0000000000000000000000000000000000000000000000000000000000000000600154600054610447565b7f00000000000000000000000000000000000000000000000000000000000000007f00000000000000000000000000000000000000000000000000000000000000006000546001545b93509350935093508373ffffffffffffffffffffffffffffffffffffffff166323b872dd33308b6040518463ffffffff1660e01b815260040161048c939291906112a6565b6020604051808303816000875af11580156104ab573d6000803e3d6000fd5b505050506040513d601f19601f820116820180604052508101906104cf91906112f2565b61050e576040517f08c379a00000000000000000000000000000000000000000000000000000000081526004016105059061136b565b60405180910390fd5b60006103e86103e58a6105219190611155565b61052b91906111c6565b9050808361053991906111f7565b82826105459190611155565b61054f91906111c6565b955087861015610594576040517f08c379a000000000000000000000000000000000000000000000000000000000815260040161058b906113d7565b60405180910390fd5b86156105d057886000808282546105ab91906111f7565b9250508190555085600160008282546105c491906113f7565b92505081905550610602565b88600160008282546105e291906111f7565b92505081905550856000808282546105fa91906113f7565b925050819055505b8373ffffffffffffffffffffffffffffffffffffffff1663a9059cbb33886040518363ffffffff1660e01b815260040161063d92919061142b565b6020604051808303816000875af115801561065c573d6000803e3d6000fd5b505050506040513d601f19601f8201168201806040525081019061068091906112f2565b6106bf576040517f08c379a00000000000000000000000000000000000000000000000000000000081526004016106b6906114a0565b60405180910390fd5b50505050509392505050565b60025481565b7f000000000000000000000000000000000000000000000000000000000000000081565b600080600083118015610747575082600360003373ffffffffffffffffffffffffffffffffffffffff1673ffffffffffffffffffffffffffffffffffffffff1681526020019081526020016000205410155b610786576040517f08c379a000000000000000000000000000000000000000000000000000000000815260040161077d9061150c565b60405180910390fd5b600254836000546107979190611155565b6107a191906111c6565b9150600254836001546107b49190611155565b6107be91906111c6565b905082600360003373ffffffffffffffffffffffffffffffffffffffff1673ffffffffffffffffffffffffffffffffffffffff168152602001908152602001600020600082825461080f91906113f7565b92505081905550826002600082825461082891906113f7565b925050819055508160008082825461084091906113f7565b92505081905550806001600082825461085991906113f7565b925050819055507f000000000000000000000000000000000000000000000000000000000000000073ffffffffffffffffffffffffffffffffffffffff1663a9059cbb33846040518363ffffffff1660e01b81526004016108bb92919061142b565b6020604051808303816000875af11580156108da573d6000803e3d6000fd5b505050506040513d601f19601f820116820180604052508101906108fe91906112f2565b61093d576040517f08c379a000000000000000000000000000000000000000000000000000000000815260040161093490611578565b60405180910390fd5b7f000000000000000000000000000000000000000000000000000000000000000073ffffffffffffffffffffffffffffffffffffffff1663a9059cbb33836040518363ffffffff1660e01b815260040161099892919061142b565b6020604051808303816000875af11580156109b7573d6000803e3d6000fd5b505050506040513d601f19601f820116820180604052508101906109db91906112f2565b610a1a576040517f08c379a0000000000000000000000000000000000000000000000000000000008152600401610a11906115e4565b60405180910390fd5b915091565b60008060025403610a4557610a3e8284610a399190611155565b610d4b565b9050610a86565b610a8360005460025485610a599190611155565b610a6391906111c6565b60015460025485610a749190611155565b610a7e91906111c6565b610dc5565b90505b60008111610ac9576040517f08c379a0000000000000000000000000000000000000000000000000000000008152600401610ac090611650565b60405180910390fd5b7f000000000000000000000000000000000000000000000000000000000000000073ffffffffffffffffffffffffffffffffffffffff166323b872dd3330866040518463ffffffff1660e01b8152600401610b26939291906112a6565b6020604051808303816000875af1158015610b45573d6000803e3d6000fd5b505050506040513d601f19601f82011682018060405250810190610b6991906112f2565b610ba8576040517f08c379a0000000000000000000000000000000000000000000000000000000008152600401610b9f906116bc565b60405180910390fd5b7f000000000000000000000000000000000000000000000000000000000000000073ffffffffffffffffffffffffffffffffffffffff166323b872dd3330856040518463ffffffff1660e01b8152600401610c05939291906112a6565b6020604051808303816000875af1158015610c24573d6000803e3d6000fd5b505050506040513d601f19601f82011682018060405250810190610c4891906112f2565b610c87576040517f08c379a0000000000000000000000000000000000000000000000000000000008152600401610c7e90611728565b60405180910390fd5b82600080828254610c9891906111f7565b925050819055508160016000828254610cb191906111f7565b925050819055508060026000828254610cca91906111f7565b9250508190555080600360003373ffffffffffffffffffffffffffffffffffffffff1673ffffffffffffffffffffffffffffffffffffffff1681526020019081526020016000206000828254610d2091906111f7565b9250508190555092915050565b60036020528060005260406000206000915090505481565b60005481565b60006003821115610db25781905060006001600284610d6a91906111c6565b610d7491906111f7565b90505b81811015610dac578091506002818285610d9191906111c6565b610d9b91906111f7565b610da591906111c6565b9050610d77565b50610dc0565b60008214610dbf57600190505b5b919050565b6000818310610dd45781610dd6565b825b905092915050565b6000819050919050565b610df181610dde565b82525050565b6000604082019050610e0c6000830185610de8565b610e196020830184610de8565b9392505050565b600073ffffffffffffffffffffffffffffffffffffffff82169050919050565b6000819050919050565b6000610e65610e60610e5b84610e20565b610e40565b610e20565b9050919050565b6000610e7782610e4a565b9050919050565b6000610e8982610e6c565b9050919050565b610e9981610e7e565b82525050565b6000602082019050610eb46000830184610e90565b92915050565b600080fd5b610ec881610dde565b8114610ed357600080fd5b50565b600081359050610ee581610ebf565b92915050565b60008115159050919050565b610f0081610eeb565b8114610f0b57600080fd5b50565b600081359050610f1d81610ef7565b92915050565b60008060408385031215610f3a57610f39610eba565b5b6000610f4885828601610ed6565b9250506020610f5985828601610f0e565b9150509250929050565b6000602082019050610f786000830184610de8565b92915050565b600080600060608486031215610f9757610f96610eba565b5b6000610fa586828701610ed6565b9350506020610fb686828701610ed6565b9250506040610fc786828701610f0e565b9150509250925092565b600060208284031215610fe757610fe6610eba565b5b6000610ff584828501610ed6565b91505092915050565b6000806040838503121561101557611014610eba565b5b600061102385828601610ed6565b925050602061103485828601610ed6565b9150509250929050565b600061104982610e20565b9050919050565b6110598161103e565b811461106457600080fd5b50565b60008135905061107681611050565b92915050565b60006020828403121561109257611091610eba565b5b60006110a084828501611067565b91505092915050565b600082825260208201905092915050565b7f4e6f206c69717569646974790000000000000000000000000000000000000000600082015250565b60006110f0600c836110a9565b91506110fb826110ba565b602082019050919050565b6000602082019050818103600083015261111f816110e3565b9050919050565b7f4e487b7100000000000000000000000000000000000000000000000000000000600052601160045260246000fd5b600061116082610dde565b915061116b83610dde565b925082820261117981610dde565b915082820484148315176111905761118f611126565b5b5092915050565b7f4e487b7100000000000000000000000000000000000000000000000000000000600052601260045260246000fd5b60006111d182610dde565b91506111dc83610dde565b9250826111ec576111eb611197565b5b828204905092915050565b600061120282610dde565b915061120d83610dde565b925082820190508082111561122557611224611126565b5b92915050565b7f5a65726f20696e00000000000000000000000000000000000000000000000000600082015250565b60006112616007836110a9565b915061126c8261122b565b602082019050919050565b6000602082019050818103600083015261129081611254565b9050919050565b6112a08161103e565b82525050565b60006060820190506112bb6000830186611297565b6112c86020830185611297565b6112d56040830184610de8565b949350505050565b6000815190506112ec81610ef7565b92915050565b60006020828403121561130857611307610eba565b5b6000611316848285016112dd565b91505092915050565b7f5472616e7366657220696e206661696c65640000000000000000000000000000600082015250565b60006113556012836110a9565b91506113608261131f565b602082019050919050565b6000602082019050818103600083015261138481611348565b9050919050565b7f536c697070616765000000000000000000000000000000000000000000000000600082015250565b60006113c16008836110a9565b91506113cc8261138b565b602082019050919050565b600060208201905081810360008301526113f0816113b4565b9050919050565b600061140282610dde565b915061140d83610dde565b925082820390508181111561142557611424611126565b5b92915050565b60006040820190506114406000830185611297565b61144d6020830184610de8565b9392505050565b7f5472616e73666572206f7574206661696c656400000000000000000000000000600082015250565b600061148a6013836110a9565b915061149582611454565b602082019050919050565b600060208201905081810360008301526114b98161147d565b9050919050565b7f4261642073686172650000000000000000000000000000000000000000000000600082015250565b60006114f66009836110a9565b9150611501826114c0565b602082019050919050565b60006020820190508181036000830152611525816114e9565b9050919050565b7f41206f7574000000000000000000000000000000000000000000000000000000600082015250565b60006115626005836110a9565b915061156d8261152c565b602082019050919050565b6000602082019050818103600083015261159181611555565b9050919050565b7f42206f7574000000000000000000000000000000000000000000000000000000600082015250565b60006115ce6005836110a9565b91506115d982611598565b602082019050919050565b600060208201905081810360008301526115fd816115c1565b9050919050565b7f496e73756666696369656e740000000000000000000000000000000000000000600082015250565b600061163a600c836110a9565b915061164582611604565b602082019050919050565b600060208201905081810360008301526116698161162d565b9050919050565b7f4120696e00000000000000000000000000000000000000000000000000000000600082015250565b60006116a66004836110a9565b91506116b182611670565b602082019050919050565b600060208201905081810360008301526116d581611699565b9050919050565b7f4220696e00000000000000000000000000000000000000000000000000000000600082015250565b60006117126004836110a9565b915061171d826116dc565b602082019050919050565b6000602082019050818103600083015261174181611705565b905091905056fea26469706673582212200a554784cd90832ea49aac5f3c21779bf0f75d76da20aec331b4ac975af34c9e64736f6c634300081c0033",
  "linkReferences": {},
  "deployedLinkReferences": {}
}